$$ADD ID=ARKRJR01 BID='ARKADIUM'
XXHDR 20050517 20050517  0355  ARK0000003RR051705CD000  
000002259                                                                                                                  000000000000000020050517 000031ARKADIUM                 3RR200505172005051700000000000000000000000                                                  01000100172295              723105             723300             723401             723500             72361              72372              72382              72391              72401                 0000000000000000                          
000002260                                                                                                                  000000000000000020050517 000031ARKADIUM                 3RR200505172005051700000000000000000000000                                                  01000100172295              723105             723300             723400             723500             72360              72372              72382              72391              72401                 0000000000000000                          
000002261                                                                                                                  000000000000000020050517 000031ARKADIUM                 3RR200505172005051700000000000000000000000                                                  01000100172296              723106             723300             723400             723500             72360              72372              72382              72392              72402                 0000000000000000                          
000002262                                                                                                                  000000000000000020050517 000031ARKADIUM                 3RR200505172005051700000000000000000000000                                                  01000100172296              723106             723300             723400             723500             72360              72372              72382              72392              72402                 0000000000000000                          
000002263                                                                                                                  000000000000000020050517 000031ARKADIUM                 3RR200505172005051700000000000000000000000                                                  01000100172296              723106             723300             723400             723500             72360              72372              72382              72392              72402                 0000000000000000                          
000002264                                                                                                                  000000000000000020050517 000031ARKADIUM                 3RR200505172005051700000000000000000000000                                                  01000100172295              723105             723300             723400             723500             72360              72372              72382              72392              72402                 0000000000000000                          
000002265                                                                                                                  000000000000000020050517 000031ARKADIUM                 3RR200505172005051700000000000000000000000                                                  01000100172295              723105             723300             723400             723500             72360              72372              72382              72392              72402                 0000000000000000                          
000002266                                                                                                                  000000000000000020050517 000031ARKADIUM                 3RR200505172005051700000000000000000000000                                                  01000100172295              723105             723300             723400             723500             72360              72372              72382              72392              72402                 0000000000000000                          
000002267                                                                                                                  000000000000000020050517 000031ARKADIUM                 3RR200505172005051700000000000000000000000                                                  01000100172296              723106             723300             723400             723500             72360              72372              72382              72392              72402                 0000000000000000                          
000002268                                                                                                                  000000000000000020050517 000031ARKADIUM                 3RR200505172005051700000000000000000000000                                                  01000100172296              723106             723300             723400             723500             72360              72372              72382              72392              72402                 0000000000000000                          
000002269                                                                                                                  000000000000000020050517 000031ARKADIUM                 3RR200505172005051700000000000000000000000                                                  01000100172295              723105             723300             723400             723500             72360              72372              72382              72392              72402                 0000000000000000                          
000002270                                                                                                                  000000000000000020050517 000031ARKADIUM                 3RR200505172005051700000000000000000000000                                                  01000100172296              723106             723300             723400             723500             72360              72372              72382              72392              72402                 0000000000000000                          
000002271                                                                                                                  000000000000000020050517 000031ARKADIUM                 3RR200505172005051700000000000000000000000                                                  01000100172295              723105             723300             723400             723500             72360              72372              72382              72392              72402                 0000000000000000                          
000002272                                                                                                                  000000000000000020050517 000031ARKADIUM                 3RR200505172005051700000000000000000000000                                                  01000100172295              723105             723300             723400             723500             72360              72372              72382              72392              72402                 0000000000000000                          
000002273                                                                                                                  000000000000000020050517 000031ARKADIUM                 3RR200505172005051700000000000000000000000                                                  01000100172295              723105             723300             723400             723500             72360              72372              72382              72392              72402                 0000000000000000                          
000002274                                                                                                                  000000000000000020050517 000031ARKADIUM                 3RR200505172005051700000000000000000000000                                                  01000100172295              723105             723300             723400             723500             72360              72372              72382              72392              72402                 0000000000000000                          
000002275                                                                                                                  000000000000000020050517 000031ARKADIUM                 3RR200505172005051700000000000000000000000                                                  01000100172296              723106             723300             723400             723500             72360              72372              72382              72392              72402                 0000000000000000                          
000002276                                                                                                                  000000000000000020050517 000031ARKADIUM                 3RR200505172005051700000000000000000000000                                                  01000100172295              723105             723300             723400             723500             72360              72372              72382              72392              72402                 0000000000000000                          
000002277                                                                                                                  000000000000000020050517 000031ARKADIUM                 3RR200505172005051700000000000000000000000                                                  01000100172295              723105             723300             723400             723500             72360              72372              72382              72393              72403                 0000000000000000                          
000002278                                                                                                                  000000000000000020050517 000031ARKADIUM                 3RR200505172005051700000000000000000000000                                                  01000100172295              723105             723300             723400             723500             72360              72372              72382              72392              72402                 0000000000000000                          
000002279                                                                                                                  000000000000000020050517 000031ARKADIUM                 3RR200505172005051700000000000000000000000                                                  01000100172295              723105             723300             723400             723500             72360              72372              72382              72392              72402                 0000000000000000                          
000002280                                                                                                                  000000000000000020050517 000031ARKADIUM                 3RR200505172005051700000000000000000000000                                                  01000100172295              723105             723300             723400             723500             72360              72372              72382              72392              72402                 0000000000000000                          
000002281                                                                                                                  000000000000000020050517 000031ARKADIUM                 3RR200505172005051700000000000000000000000                                                  01000100172295              723105             723300             723400             723500             72360              72372              72382              72392              72402                 0000000000000000                          
000002282                                                                                                                  000000000000000020050517 000031ARKADIUM                 3RR200505172005051700000000000000000000000                                                  01000100172295              723105             723300             723400             723500             72360              72372              72382              72392              72402                 0000000000000000                          
000002283                                                                                                                  000000000000000020050517 000031ARKADIUM                 3RR200505172005051700000000000000000000000                                                  01000100172295              723105             723300             723400             723500             72360              72372              72382              72392              72402                 0000000000000000                          
000002284                                                                                                                  000000000000000020050517 000031ARKADIUM                 3RR200505172005051700000000000000000000000                                                  01000100172295              723105             723300             723400             723500             72360              72372              72382              72392              72402                 0000000000000000                          
000002285                                                                                                                  000000000000000020050517 000031ARKADIUM                 3RR200505172005051700000000000000000000000                                                  01000100172295              723105             723300             723400             723500             72360              72372              72382              72392              72402                 0000000000000000                          
000002286                                                                                                                  000000000000000020050517 000031ARKADIUM                 3RR200505172005051700000000000000000000000                                                  01000100172296              723106             723300             723400             723500             72360              72372              72382              72392              72402                 0000000000000000                          
000002287                                                                                                                  000000000000000020050517 000031ARKADIUM                 3RR200505172005051700000000000000000000000                                                  01000100172296              723106             723300             723400             723500             72360              72372              72382              72392              72402                 0000000000000000                          
000002288                                                                                                                  000000000000000020050517 000031ARKADIUM                 3RR200505172005051700000000000000000000000                                                  01000100172295              723105             723300             723400             723500             72360              72372              72382              72393              72403                 0000000000000000                          
000002289                                                                                                                  000000000000000020050517 000031ARKADIUM                 3RR200505172005051700000000000000000000000                                                  01000100172295              723105             723300             723400             723500             72360              72372              72382              72392              72402                 0000000000000000                          
000002290                                                                                                                  000000000000000020050517 000031ARKADIUM                 3RR200505172005051700000000000000000000000                                                  01000100172295              723105             723300             723400             723500             72360              72372              72382              72392              72402                 0000000000000000                          
000002291                                                                                                                  000000000000000020050517 000031ARKADIUM                 3RR200505172005051700000000000000000000000                                                  01000100172295              723105             723300             723400             723500             72360              72372              72382              72392              72402                 0000000000000000                          
000002292                                                                                                                  000000000000000020050517 000031ARKADIUM                 3RR200505172005051700000000000000000000000                                                  01000100172295              723105             723300             723400             723500             72360              72372              72382              72392              72402                 0000000000000000                          
000002293                                                                                                                  000000000000000020050517 000031ARKADIUM                 3RR200505172005051700000000000000000000000                                                  01000100172295              723105             723300             723400             723500             72360              72372              72382              72392              72402                 0000000000000000                          
000002294                                                                                                                  000000000000000020050517 000031ARKADIUM                 3RR200505172005051700000000000000000000000                                                  01000100172295              723105             723300             723400             723500             72360              72372              72382              72392              72402                 0000000000000000                          
000002295                                                                                                                  000000000000000020050517 000031ARKADIUM                 3RR200505172005051700000000000000000000000                                                  01000100172295              723105             723300             723400             723500             72360              72372              72382              72392              72402                 0000000000000000                          
000002296                                                                                                                  000000000000000020050517 000031ARKADIUM                 3RR200505172005051700000000000000000000000                                                  01000100172295              723105             723300             723400             723500             72360              72372              72382              72392              72402                 0000000000000000                          
000002297                                                                                                                  000000000000000020050517 000031ARKADIUM                 3RR200505172005051700000000000000000000000                                                  01000100172295              723105             723300             723400             723500             72360              72372              72382              72392              72402                 0000000000000000                          
000002298                                                                                                                  000000000000000020050517 000031ARKADIUM                 3RR200505172005051700000000000000000000000                                                  01000100172295              723105             723300             723400             723500             72360              72372              72382              72392              72402                 0000000000000000                          
000002299                                                                                                                  000000000000000020050517 000031ARKADIUM                 3RR200505172005051700000000000000000000000                                                  01000100172295              723105             723300             723400             723500             72360              72372              72382              72392              72402                 0000000000000000                          
000002300                                                                                                                  000000000000000020050517 000031ARKADIUM                 3RR200505172005051700000000000000000000000                                                  01000100172295              723105             723300             723400             723500             72360              72372              72382              72392              72402                 0000000000000000                          
000002301                                                                                                                  000000000000000020050517 000031ARKADIUM                 3RR200505172005051700000000000000000000000                                                  01000100172295              723105             723300             723400             723500             72360              72372              72382              72393              72403                 0000000000000000                          
000002302                                                                                                                  000000000000000020050517 000031ARKADIUM                 3RR200505172005051700000000000000000000000                                                  01000100172295              723105             723300             723400             723500             72360              72372              72382              72392              72402                 0000000000000000                          
000002303                                                                                                                  000000000000000020050517 000031ARKADIUM                 3RR200505172005051700000000000000000000000                                                  01000100172295              723105             723300             723400             723500             72360              72372              72382              72392              72402                 0000000000000000                          
000002304                                                                                                                  000000000000000020050517 000031ARKADIUM                 3RR200505172005051700000000000000000000000                                                  01000100172295              723105             723300             723400             723500             72360              72372              72382              72392              72402                 0000000000000000                          
000002305                                                                                                                  000000000000000020050517 000031ARKADIUM                 3RR200505172005051700000000000000000000000                                                  01000100172295              723105             723300             723400             723500             72360              72372              72382              72393              72403                 0000000000000000                          
000002306                                                                                                                  000000000000000020050517 000031ARKADIUM                 3RR200505172005051700000000000000000000000                                                  01000100172295              723105             723300             723400             723500             72360              72372              72382              72392              72402                 0000000000000000                          
000002307                                                                                                                  000000000000000020050517 000031ARKADIUM                 3RR200505172005051700000000000000000000000                                                  01000100172295              723105             723300             723400             723500             72360              72372              72382              72393              72403                 0000000000000000                          
000002308                                                                                                                  000000000000000020050517 000031ARKADIUM                 3RR200505172005051700000000000000000000000                                                  01000100172295              723105             723300             723400             723500             72360              72372              72382              72393              72403                 0000000000000000                          
000002309                                                                                                                  000000000000000020050517 000031ARKADIUM                 3RR200505172005051700000000000000000000000                                                  01000100172294              723104             723300             723400             723500             72360              72372              72382              72394              72404                 0000000000000000                          
000002310                                                                                                                  000000000000000020050517 000031ARKADIUM                 3RR200505172005051700000000000000000000000                                                  01000100172294              723104             723300             723400             723500             72360              72372              72382              72393              72403                 0000000000000000                          
000002311                                                                                                                  000000000000000020050517 000031ARKADIUM                 3RR200505172005051700000000000000000000000                                                  01000100172296              723106             723300             723400             723500             72360              72372              72382              72391              72401                 0000000000000000                          
000002312                                                                                                                  000000000000000020050517 000031ARKADIUM                 3RR200505172005051700000000000000000000000                                                  01000100172296              723106             723300             723400             723500             72360              72372              72382              72391              72401                 0000000000000000                          
000002313                                                                                                                  000000000000000020050517 000031ARKADIUM                 3RR200505172005051700000000000000000000000                                                  01000100172296              723106             723300             723400             723500             72360              72372              72382              72391              72401                 0000000000000000                          
000002314                                                                                                                  000000000000000020050517 000031ARKADIUM                 3RR200505172005051700000000000000000000000                                                  01000100172296              723106             723300             723400             723500             72360              72372              72382              72391              72401                 0000000000000000                          
000002315                                                                                                                  000000000000000020050517 000031ARKADIUM                 3RR200505172005051700000000000000000000000                                                  01000100172296              723106             723300             723400             723500             72360              72372              72382              72393              72403                 0000000000000000                          
000002316                                                                                                                  000000000000000020050517 000031ARKADIUM                 3RR200505172005051700000000000000000000000                                                  01000100172296              723106             723300             723400             723500             72360              72372              72382              72391              72401                 0000000000000000                          
000002317                                                                                                                  000000000000000020050517 000031ARKADIUM                 3RR200505172005051700000000000000000000000                                                  01000100172296              723106             723300             723400             723500             72360              72372              72382              72391              72401                 0000000000000000                          
000002318                                                                                                                  000000000000000020050517 000031ARKADIUM                 3RR200505172005051700000000000000000000000                                                  01000100172296              723106             723300             723400             723500             72360              72372              72382              72391              72401                 0000000000000000                          
000002319                                                                                                                  000000000000000020050517 000031ARKADIUM                 3RR200505172005051700000000000000000000000                                                  01000100172296              723106             723300             723400             723500             72360              72372              72382              72391              72401                 0000000000000000                          
000002320                                                                                                                  000000000000000020050517 000031ARKADIUM                 3RR200505172005051700000000000000000000000                                                  01000100172296              723106             723300             723400             723500             72360              72372              72382              72391              72401                 0000000000000000                          
000002321                                                                                                                  000000000000000020050517 000031ARKADIUM                 3RR200505172005051700000000000000000000000                                                  01000100172294              723104             723300             723400             723500             72360              72372              72382              72395              72405                 0000000000000000                          
000002322                                                                                                                  000000000000000020050517 000031ARKADIUM                 3RR200505172005051700000000000000000000000                                                  01000100172294              723104             723300             723400             723500             72360              72372              72382              72392              72402                 0000000000000000                          
000002323                                                                                                                  000000000000000020050517 000031ARKADIUM                 3RR200505172005051700000000000000000000000                                                  01000100172294              723104             723300             723400             723500             72360              72372              72382              72392              72402                 0000000000000000                          
000002324                                                                                                                  000000000000000020050517 000031ARKADIUM                 3RR200505172005051700000000000000000000000                                                  01000100172294              723104             723300             723400             723500             72360              72372              72382              72392              72402                 0000000000000000                          
000002325                                                                                                                  000000000000000020050517 000031ARKADIUM                 3RR200505172005051700000000000000000000000                                                  01000100172294              723104             723300             723400             723500             72360              72372              72382              72392              72402                 0000000000000000                          
000002326                                                                                                                  000000000000000020050517 000031ARKADIUM                 3RR200505172005051700000000000000000000000                                                  01000100172294              723104             723300             723400             723500             72360              72372              72382              72392              72402                 0000000000000000                          
000002327                                                                                                                  000000000000000020050517 000031ARKADIUM                 3RR200505172005051700000000000000000000000                                                  01000100172293              723103             723300             723400             723500             72360              72372              72382              72392              72402                 0000000000000000                          
000002328                                                                                                                  000000000000000020050517 000031ARKADIUM                 3RR200505172005051700000000000000000000000                                                  01000100172293              723103             723300             723400             723500             72360              72372              72382              72392              72402                 0000000000000000                          
000002329                                                                                                                  000000000000000020050517 000031ARKADIUM                 3RR200505172005051700000000000000000000000                                                  01000100172294              723104             723300             723400             723500             72360              72372              72382              72392              72402                 0000000000000000                          
000002330                                                                                                                  000000000000000020050517 000031ARKADIUM                 3RR200505172005051700000000000000000000000                                                  01000100172294              723104             723300             723400             723500             72360              72372              72382              72392              72402                 0000000000000000                          
000002331                                                                                                                  000000000000000020050517 000031ARKADIUM                 3RR200505172005051700000000000000000000000                                                  01000100172294              723104             723300             723400             723500             72360              72372              72382              72392              72402                 0000000000000000                          
000002332                                                                                                                  000000000000000020050517 000031ARKADIUM                 3RR200505172005051700000000000000000000000                                                  01000100172294              723104             723300             723400             723500             72360              72372              72382              72392              72402                 0000000000000000                          
000002333                                                                                                                  000000000000000020050517 000031ARKADIUM                 3RR200505172005051700000000000000000000000                                                  01000100172294              723104             723300             723400             723500             72360              72372              72382              72392              72402                 0000000000000000                          
000002334                                                                                                                  000000000000000020050517 000031ARKADIUM                 3RR200505172005051700000000000000000000000                                                  01000100172294              723104             723300             723400             723500             72360              72372              72382              72392              72402                 0000000000000000                          
000002335                                                                                                                  000000000000000020050517 000031ARKADIUM                 3RR200505172005051700000000000000000000000                                                  01000100172294              723104             723300             723400             723500             72360              72372              72382              72392              72402                 0000000000000000                          
000002336                                                                                                                  000000000000000020050517 000031ARKADIUM                 3RR200505172005051700000000000000000000000                                                  01000100172294              723104             723300             723400             723500             72360              72372              72382              72392              72402                 0000000000000000                          
000002337                                                                                                                  000000000000000020050517 000031ARKADIUM                 3RR200505172005051700000000000000000000000                                                  01000100172293              723103             723300             723400             723500             72360              72372              72382              72392              72402                 0000000000000000                          
000002338                                                                                                                  000000000000000020050517 000031ARKADIUM                 3RR200505172005051700000000000000000000000                                                  01000100172294              723104             723300             723400             723500             72360              72372              72382              72392              72402                 0000000000000000                          
000002339                                                                                                                  000000000000000020050517 000031ARKADIUM                 3RR200505172005051700000000000000000000000                                                  01000100172293              723103             723300             723400             723500             72360              72372              72382              72392              72402                 0000000000000000                          
000002340                                                                                                                  000000000000000020050517 000031ARKADIUM                 3RR200505172005051700000000000000000000000                                                  01000100172293              723103             723300             723400             723500             72360              72372              72382              72392              72402                 0000000000000000                          
000002341                                                                                                                  000000000000000020050517 000031ARKADIUM                 3RR200505172005051700000000000000000000000                                                  01000100172294              723104             723300             723400             723500             72360              72372              72382              72392              72402                 0000000000000000                          
000002342                                                                                                                  000000000000000020050517 000031ARKADIUM                 3RR200505172005051700000000000000000000000                                                  01000100172294              723104             723300             723400             723500             72360              72372              72382              72392              72402                 0000000000000000                          
000002343                                                                                                                  000000000000000020050517 000031ARKADIUM                 3RR200505172005051700000000000000000000000                                                  01000100172293              723103             723300             723400             723500             72360              72372              72382              72392              72402                 0000000000000000                          
000002344                                                                                                                  000000000000000020050517 000031ARKADIUM                 3RR200505172005051700000000000000000000000                                                  01000100172293              723103             723300             723400             723500             72360              72372              72382              72392              72402                 0000000000000000                          
000002345                                                                                                                  000000000000000020050517 000031ARKADIUM                 3RR200505172005051700000000000000000000000                                                  01000100172294              723104             723300             723400             723500             72360              72372              72382              72392              72402                 0000000000000000                          
000002346                                                                                                                  000000000000000020050517 000031ARKADIUM                 3RR200505172005051700000000000000000000000                                                  01000100172293              723103             723300             723400             723500             72360              72372              72382              72392              72402                 0000000000000000                          
000002347                                                                                                                  000000000000000020050517 000031ARKADIUM                 3RR200505172005051700000000000000000000000                                                  01000100172294              723104             723300             723400             723500             72360              72372              72382              72392              72402                 0000000000000000                          
000002348                                                                                                                  000000000000000020050517 000031ARKADIUM                 3RR200505172005051700000000000000000000000                                                  01000100172294              723104             723300             723400             723500             72360              72372              72382              72392              72402                 0000000000000000                          
000002349                                                                                                                  000000000000000020050517 000031ARKADIUM                 3RR200505172005051700000000000000000000000                                                  01000100172294              723104             723300             723400             723500             72360              72372              72382              72392              72402                 0000000000000000                          
000002350                                                                                                                  000000000000000020050517 000031ARKADIUM                 3RR200505172005051700000000000000000000000                                                  01000100172294              723104             723300             723400             723500             72360              72372              72382              72392              72402                 0000000000000000                          
000002351                                                                                                                  000000000000000020050517 000031ARKADIUM                 3RR200505172005051700000000000000000000000                                                  01000100172294              723104             723300             723400             723500             72360              72372              72382              72392              72402                 0000000000000000                          
000002352                                                                                                                  000000000000000020050517 000031ARKADIUM                 3RR200505172005051700000000000000000000000                                                  01000100172294              723104             723300             723400             723500             72360              72372              72382              72392              72402                 0000000000000000                          
000002353                                                                                                                  000000000000000020050517 000031ARKADIUM                 3RR200505172005051700000000000000000000000                                                  01000100172293              723103             723300             723400             723500             72360              72372              72382              72392              72402                 0000000000000000                          
000002354                                                                                                                  000000000000000020050517 000031ARKADIUM                 3RR200505172005051700000000000000000000000                                                  01000100172293              723103             723300             723400             723500             72360              72372              72382              72392              72402                 0000000000000000                          
000002355                                                                                                                  000000000000000020050517 000031ARKADIUM                 3RR200505172005051700000000000000000000000                                                  01000100172293              723103             723300             723400             723500             72360              72372              72382              72392              72402                 0000000000000000                          
000002356                                                                                                                  000000000000000020050517 000031ARKADIUM                 3RR200505172005051700000000000000000000000                                                  01000100172294              723104             723300             723400             723500             72360              72372              72382              72392              72402                 0000000000000000                          
000002357                                                                                                                  000000000000000020050517 000031ARKADIUM                 3RR200505172005051700000000000000000000000                                                  01000100172294              723104             723300             723400             723500             72360              72372              72382              72392              72402                 0000000000000000                          
000002358                                                                                                                  000000000000000020050517 000031ARKADIUM                 3RR200505172005051700000000000000000000000                                                  01000100172294              723104             723300             723400             723500             72360              72372              72382              72392              72402                 0000000000000000                          
000002359                                                                                                                  000000000000000020050517 000031ARKADIUM                 3RR200505172005051700000000000000000000000                                                  01000100172294              723104             723300             723400             723500             72360              72372              72382              72392              72402                 0000000000000000                          
000002360                                                                                                                  000000000000000020050517 000031ARKADIUM                 3RR200505172005051700000000000000000000000                                                  01000100172294              723104             723300             723400             723500             72360              72372              72382              72392              72402                 0000000000000000                          
000002361                                                                                                                  000000000000000020050517 000031ARKADIUM                 3RR200505172005051700000000000000000000000                                                  01000100172293              723103             723300             723400             723500             72360              72372              72382              72392              72402                 0000000000000000                          
000002362                                                                                                                  000000000000000020050517 000031ARKADIUM                 3RR200505172005051700000000000000000000000                                                  01000100172294              723104             723300             723400             723500             72360              72372              72382              72392              72402                 0000000000000000                          
000002363                                                                                                                  000000000000000020050517 000031ARKADIUM                 3RR200505172005051700000000000000000000000                                                  01000100172293              723103             723300             723400             723500             72360              72372              72382              72392              72402                 0000000000000000                          
000002364                                                                                                                  000000000000000020050517 000031ARKADIUM                 3RR200505172005051700000000000000000000000                                                  01000100172293              723103             723300             723400             723500             72360              72372              72382              72392              72402                 0000000000000000                          
000002365                                                                                                                  000000000000000020050517 000031ARKADIUM                 3RR200505172005051700000000000000000000000                                                  01000100172293              723103             723300             723400             723500             72360              72372              72382              72392              72402                 0000000000000000                          
000002366                                                                                                                  000000000000000020050517 000031ARKADIUM                 3RR200505172005051700000000000000000000000                                                  01000100172293              723103             723300             723400             723500             72360              72372              72382              72392              72402                 0000000000000000                          
000002367                                                                                                                  000000000000000020050517 000031ARKADIUM                 3RR200505172005051700000000000000000000000                                                  01000100172293              723103             723300             723400             723500             72360              72372              72382              72392              72402                 0000000000000000                          
000002368                                                                                                                  000000000000000020050517 000031ARKADIUM                 3RR200505172005051700000000000000000000000                                                  01000100172293              723103             723300             723400             723500             72360              72372              72382              72392              72402                 0000000000000000                          
000002369                                                                                                                  000000000000000020050517 000031ARKADIUM                 3RR200505172005051700000000000000000000000                                                  01000100172293              723103             723300             723400             723500             72360              72372              72382              72392              72402                 0000000000000000                          
000002370                                                                                                                  000000000000000020050517 000031ARKADIUM                 3RR200505172005051700000000000000000000000                                                  01000100172293              723103             723300             723400             723500             72360              72372              72382              72392              72402                 0000000000000000                          
000002371                                                                                                                  000000000000000020050517 000031ARKADIUM                 3RR200505172005051700000000000000000000000                                                  01000100172293              723103             723300             723400             723500             72360              72372              72382              72392              72402                 0000000000000000                          
000002372                                                                                                                  000000000000000020050517 000031ARKADIUM                 3RR200505172005051700000000000000000000000                                                  01000100172293              723103             723300             723400             723500             72360              72372              72382              72392              72402                 0000000000000000                          
000002373                                                                                                                  000000000000000020050517 000031ARKADIUM                 3RR200505172005051700000000000000000000000                                                  01000100172293              723103             723300             723400             723500             72360              72372              72382              72392              72402                 0000000000000000                          
000002374                                                                                                                  000000000000000020050517 000031ARKADIUM                 3RR200505172005051700000000000000000000000                                                  01000100172293              723103             723300             723400             723500             72360              72372              72382              72392              72402                 0000000000000000                          
000002375                                                                                                                  000000000000000020050517 000031ARKADIUM                 3RR200505172005051700000000000000000000000                                                  01000100172293              723103             723300             723400             723500             72360              72372              72382              72392              72402                 0000000000000000                          
000002376                                                                                                                  000000000000000020050517 000031ARKADIUM                 3RR200505172005051700000000000000000000000                                                  01000100172293              723103             723300             723400             723500             72360              72372              72382              72392              72402                 0000000000000000                          
000002377                                                                                                                  000000000000000020050517 000031ARKADIUM                 3RR200505172005051700000000000000000000000                                                  01000100172293              723103             723300             723400             723500             72360              72372              72382              72392              72402                 0000000000000000                          
000002378                                                                                                                  000000000000000020050517 000031ARKADIUM                 3RR200505172005051700000000000000000000000                                                  01000100172293              723103             723300             723400             723500             72360              72372              72382              72392              72402                 0000000000000000                          
000002379                                                                                                                  000000000000000020050517 000031ARKADIUM                 3RR200505172005051700000000000000000000000                                                  01000100172293              723103             723300             723400             723500             72360              72372              72382              72392              72402                 0000000000000000                          
000002380                                                                                                                  000000000000000020050517 000031ARKADIUM                 3RR200505172005051700000000000000000000000                                                  01000100172293              723103             723300             723400             723500             72360              72372              72382              72392              72402                 0000000000000000                          
000002381                                                                                                                  000000000000000020050517 000031ARKADIUM                 3RR200505172005051700000000000000000000000                                                  01000100172293              723103             723300             723400             723500             72360              72372              72382              72392              72402                 0000000000000000                          
000002382                                                                                                                  000000000000000020050517 000031ARKADIUM                 3RR200505172005051700000000000000000000000                                                  01000100172293              723103             723300             723400             723500             72360              72372              72382              72392              72402                 0000000000000000                          
000002383                                                                                                                  000000000000000020050517 000031ARKADIUM                 3RR200505172005051700000000000000000000000                                                  01000100172293              723103             723300             723400             723500             72360              72372              72382              72392              72402                 0000000000000000                          
000002384                                                                                                                  000000000000000020050517 000031ARKADIUM                 3RR200505172005051700000000000000000000000                                                  01000100172293              723103             723300             723400             723500             72360              72372              72382              72392              72402                 0000000000000000                          
000002385                                                                                                                  000000000000000020050517 000031ARKADIUM                 3RR200505172005051700000000000000000000000                                                  01000100172293              723103             723300             723400             723500             72360              72372              72382              72392              72402                 0000000000000000                          
000002386                                                                                                                  000000000000000020050517 000031ARKADIUM                 3RR200505172005051700000000000000000000000                                                  01000100172293              723103             723300             723400             723500             72360              72372              72382              72392              72402                 0000000000000000                          
000002387                                                                                                                  000000000000000020050517 000031ARKADIUM                 3RR200505172005051700000000000000000000000                                                  01000100172293              723103             723300             723400             723500             72360              72372              72382              72392              72402                 0000000000000000                          
000002388                                                                                                                  000000000000000020050517 000031ARKADIUM                 3RR200505172005051700000000000000000000000                                                  01000100172293              723103             723300             723400             723500             72360              72372              72382              72392              72402                 0000000000000000                          
000002389                                                                                                                  000000000000000020050517 000031ARKADIUM                 3RR200505172005051700000000000000000000000                                                  01000100172293              723103             723300             723400             723500             72360              72372              72382              72392              72402                 0000000000000000                          
000002390                                                                                                                  000000000000000020050517 000031ARKADIUM                 3RR200505172005051700000000000000000000000                                                  01000100172293              723103             723300             723400             723500             72360              72372              72382              72392              72402                 0000000000000000                          
000002391                                                                                                                  000000000000000020050517 000031ARKADIUM                 3RR200505172005051700000000000000000000000                                                  01000100172293              723103             723300             723400             723500             72360              72372              72382              72392              72402                 0000000000000000                          
000002392                                                                                                                  000000000000000020050517 000031ARKADIUM                 3RR200505172005051700000000000000000000000                                                  01000100172293              723103             723300             723400             723500             72360              72372              72382              72392              72402                 0000000000000000                          
000002393                                                                                                                  000000000000000020050517 000031ARKADIUM                 3RR200505172005051700000000000000000000000                                                  01000100172293              723103             723300             723400             723500             72360              72372              72382              72392              72402                 0000000000000000                          
000002394                                                                                                                  000000000000000020050517 000031ARKADIUM                 3RR200505172005051700000000000000000000000                                                  01000100172293              723103             723300             723400             723500             72360              72372              72382              72392              72402                 0000000000000000                          
000002395                                                                                                                  000000000000000020050517 000031ARKADIUM                 3RR200505172005051700000000000000000000000                                                  01000100172293              723103             723300             723400             723500             72360              72372              72382              72392              72402                 0000000000000000                          
000002396                                                                                                                  000000000000000020050517 000031ARKADIUM                 3RR200505172005051700000000000000000000000                                                  01000100172293              723103             723300             723400             723500             72360              72372              72382              72392              72402                 0000000000000000                          
000002397                                                                                                                  000000000000000020050517 000031ARKADIUM                 3RR200505172005051700000000000000000000000                                                  01000100172293              723103             723300             723400             723500             72360              72372              72382              72392              72402                 0000000000000000                          
000002398                                                                                                                  000000000000000020050517 000031ARKADIUM                 3RR200505172005051700000000000000000000000                                                  01000100172293              723103             723300             723400             723500             72360              72372              72382              72392              72402                 0000000000000000                          
000002399                                                                                                                  000000000000000020050517 000031ARKADIUM                 3RR200505172005051700000000000000000000000                                                  01000100172293              723103             723300             723400             723500             72360              72372              72382              72392              72402                 0000000000000000                          
000002400                                                                                                                  000000000000000020050517 000031ARKADIUM                 3RR200505172005051700000000000000000000000                                                  01000100172293              723103             723300             723400             723500             72360              72372              72382              72392              72402                 0000000000000000                          
000002401                                                                                                                  000000000000000020050517 000031ARKADIUM                 3RR200505172005051700000000000000000000000                                                  01000100172293              723103             723300             723400             723500             72360              72372              72382              72392              72402                 0000000000000000                          
000002402                                                                                                                  000000000000000020050517 000031ARKADIUM                 3RR200505172005051700000000000000000000000                                                  01000100172293              723103             723300             723400             723500             72360              72372              72382              72392              72402                 0000000000000000                          
000002403                                                                                                                  000000000000000020050517 000031ARKADIUM                 3RR200505172005051700000000000000000000000                                                  01000100172293              723103             723300             723400             723500             72360              72372              72382              72392              72402                 0000000000000000                          
000002404                                                                                                                  000000000000000020050517 000031ARKADIUM                 3RR200505172005051700000000000000000000000                                                  01000100172293              723103             723300             723400             723500             72360              72372              72382              72392              72402                 0000000000000000                          
000002405                                                                                                                  000000000000000020050517 000031ARKADIUM                 3RR200505172005051700000000000000000000000                                                  01000100172293              723103             723300             723400             723500             72360              72372              72382              72392              72402                 0000000000000000                          
000002406                                                                                                                  000000000000000020050517 000031ARKADIUM                 3RR200505172005051700000000000000000000000                                                  01000100172293              723103             723300             723400             723500             72360              72372              72382              72392              72402                 0000000000000000                          
000002407                                                                                                                  000000000000000020050517 000031ARKADIUM                 3RR200505172005051700000000000000000000000                                                  01000100172293              723103             723300             723400             723500             72360              72372              72382              72392              72402                 0000000000000000                          
000002408                                                                                                                  000000000000000020050517 000031ARKADIUM                 3RR200505172005051700000000000000000000000                                                  01000100172293              723103             723300             723400             723500             72360              72372              72382              72392              72402                 0000000000000000                          
000002409                                                                                                                  000000000000000020050517 000031ARKADIUM                 3RR200505172005051700000000000000000000000                                                  01000100172293              723103             723300             723400             723500             72360              72372              72382              72392              72402                 0000000000000000                          
000002410                                                                                                                  000000000000000020050517 000031ARKADIUM                 3RR200505172005051700000000000000000000000                                                  01000100172293              723103             723300             723400             723500             72360              72372              72382              72392              72402                 0000000000000000                          
000002411                                                                                                                  000000000000000020050517 000031ARKADIUM                 3RR200505172005051700000000000000000000000                                                  01000100172293              723103             723300             723400             723500             72360              72372              72382              72391              72401                 0000000000000000                          
XXEOF 20050517 000000153
